:100000000C943C000C9459000C9459000C94590029
:100010000C9459000C9459000C9459000C945900FC
:100020000C9459000C9459000C9459000C945900EC
:100030000C9459000C9459000C9459000C945900DC
:100040000C948F020C9459000C94C6020C94590025
:100050000C9459000C946A020C9459000C945900A9
:100060000C9459000C945900650070007E008C00BF
:100070009A00A800B600BF0011241FBECFEFD8E041
:10008000DEBFCDBF11E0A0E0B1E0E0E6F6E002C0E7
:1000900005900D92AE30B107D9F721E0AEE0B1E0A6
:1000A00001C01D92AE31B207E1F70E940D020C941F
:1000B0002E030C94000090E08830910508F067C092
:1000C000FC01EC5CFF4F0C941403EEE7F0E0808140
:1000D00081608083ECE7F0E08081887F808357C077
:1000E000ECE7F0E08081887F80838081816080837D
:1000F000EEE7F0E080818260808349C0ECE7F0E0C9
:100100008081887F8083808182608083EEE7F0E059
:100110008081846080833BC0ECE7F0E08081887F51
:100120008083808183608083EEE7F0E08081886057
:1001300080832DC0ECE7F0E08081887F8083808120
:1001400084608083EEE7F0E08081806180831FC05F
:10015000ECE7F0E08081887F808380818560808308
:10016000EEE7F0E080818062808311C0ECE7F0E090
:100170008081887F808380818660808308C0ECE7EF
:10018000F0E08081887F8083808187608083ECE7D6
:10019000F0E0808180628083808180648083EAE7F0
:1001A000F0E08081886080838081876080838081A7
:1001B00080688083089580FF04C09BB190619BB9E3
:1001C00003C09BB19F7E9BB981FF04C09BB190622D
:1001D0009BB903C09BB19F7D9BB982FF04C09BB1BB
:1001E00090649BB903C09BB19F7B9BB983FF04C004
:1001F0009BB190689BB903C09BB19F779BB984FF6B
:1002000004C095B1916095B903C095B19E7F95B931
:1002100085FF04C095B1926095B903C095B19D7FEB
:1002200095B986FF04C095B1946095B903C095B1A6
:100230009B7F95B9882324F485B1886085B908959A
:1002400085B1877F85B908959BB19B7F9BB90E943B
:10025000DB008BB188608BB985E08A95F1F70000EF
:100260008BB1877F8BB98FE79EE30197F1F700C0D1
:10027000000008958AB18C6F8AB98BB18BB984B1B3
:100280008F6084B985B185B92FEF89EF90E0215057
:1002900080409040E1F700C0000088E30E94240104
:1002A0008FE19EE40197F1F700C000008EE00E940C
:1002B00024018FE39FE10197F1F700C0000081E086
:1002C0000E9424018FE39FE10197F1F700C0000035
:1002D00086E00E94240108959BB194609BB90E941E
:1002E000DB008BB188608BB985E08A95F1F700005F
:1002F0008BB1877F8BB98FE39FE10197F1F700C046
:10030000000008950F931F93CF93DF938C01C0E0FB
:10031000D0E003C00E946C012196F801EC0FFD1F94
:1003200080818111F7CFDF91CF911F910F910895B7
:10033000613021F481580E9424010895623019F43B
:1003400081540E9424010895F89485E00E945B0086
:1003500086E00E945B007894089585B5856085BD30
:100360008CED86BDEEE6F0E08081816080830895AB
:10037000CF93DF93FC019B01CB0164E670E00E9408
:100380000003605D6083CAE0D0E0C901BE010E9445
:100390000003282FCB01BE010E940003805D8183F2
:1003A000205D22831382DF91CF910895FC016623A3
:1003B00024F4619581E090E002C080E090E0892B18
:1003C000B9F08DE2808397E66902912D112495950D
:1003D000959567FD939580E3890F8183990F892F08
:1003E000880F880F980F691B605D628313820895E0
:1003F00097E66902912D11249595959567FD939542
:1004000080E3890F8083990F892F880F880F980FB9
:10041000691B605D6183128208950E94A4010E949D
:100420003A010E94AD0181E00E94E30261E081E0B7
:100430000E94980184E091E00E94820161E086E0E0
:100440000E94980187E091E00E94820161E08BE0C8
:100450000E9498018AE091E00E948201609111015E
:1004600070E086E191E00E94B8016091100170E0B7
:100470008AE191E00E94B8016FEF70E080E091E0C6
:100480000E94B80160910E0182E191E00E94D601C4
:1004900062E081E00E94980186E191E00E94820181
:1004A00062E086E00E9498018AE191E00E94820168
:1004B00062E08BE00E94980182E191E00E9482015B
:1004C0002FEF80E792E0215080409040E1F700C09C
:1004D0000000C4CF1F920F920FB60F9211248F937A
:1004E000EF93FF9380910F01882319F0813031F051
:1004F00009C0809179008093110104C08091790036
:1005000080931001EAE7F0E0808180618083FF91B1
:10051000EF918F910F900FBE0F901F9018951F9223
:100520000F920FB60F9211248F93EF93FF93809148
:100530000F01882319F0813069F016C081E08093A3
:100540000F01ECE7F0E08081887F80838081856007
:1005500080830AC010920F01ECE7F0E08081887F71
:100560008083808186608083EAE7F0E08081806418
:1005700080838CED86BD85B3816085BBFF91EF9153
:100580008F910F900FBE0F901F9018951F920F9292
:100590000FB60F9211248F938091C600813631F4EB
:1005A00080910E018F5F80930E0107C0823629F47F
:1005B00080910E01815080930E018F910F900FBE9C
:1005C0000F901F9018958130D1F48AB18E7F8AB92F
:1005D0008AB182608AB91092C000E1ECF0E010822A
:1005E000808188698083E2ECF0E0108280818660FF
:1005F000808387E690E09093C5008093C4000895BF
:1006000097FB072E16F4009407D077FD09D00E94BF
:100610001A0307FC05D03EF4909581959F4F0895ED
:10062000709561957F4F0895EE0FFF1F0590F4912F
:10063000E02D0994AA1BBB1B51E107C0AA1FBB1FD9
:10064000A617B70710F0A61BB70B881F991F5A955E
:10065000A9F780959095BC01CD010895F894FFCF3E
:0E06600030303000533100533200533300006D
:00000001FF
